:020000040800F2
:10000000FC1F0020FD0100084D0200084D02000801
:1000100000000000000000000000000000000000E0
:100020000000000000000000000000004D02000879
:1000300000000000000000004D020008DD2A00085A
:100040004D0200084D0200084D0200084D02000854
:100050004D0200084D0200084D0200084D02000844
:100060004D0200084D0200084D0200084D02000834
:100070004D0200084D020008000000004D0200087B
:10008000000000004D020008000000000000000019
:100090004D020008000000004D0200084D0200085B
:1000A0004D0200084D0200084D0200084D020008F4
:1000B0004D0200084D02000800000000092B000856
:1000C0000023C25C0133002AFBD1581E7047000098
:1000D00003B47146490840004900095E49008E4456
:1000E00003BC7047002243088B4274D303098B4240
:1000F0005FD3030A8B4244D3030B8B4228D3030CF8
:100100008B420DD3FF22090212BA030C8B4202D399
:100110001212090265D0030B8B4219D300E0090AC1
:10012000C30B8B4201D3CB03C01A5241830B8B42CA
:1001300001D38B03C01A5241430B8B4201D34B03B3
:10014000C01A5241030B8B4201D30B03C01A524118
:10015000C30A8B4201D3CB02C01A5241830A8B429D
:1001600001D38B02C01A5241430A8B4201D34B0286
:10017000C01A5241030A8B4201D30B02C01A5241EA
:10018000CDD2C3098B4201D3CB01C01A524183099E
:100190008B4201D38B01C01A524143098B4201D3D8
:1001A0004B01C01A524103098B4201D30B01C01A03
:1001B0005241C3088B4201D3CB00C01A524183087D
:1001C0008B4201D38B00C01A524143088B4201D3AA
:1001D0004B00C01A5241411A00D20146524110460A
:1001E0007047FFE701B5002000F006F802BDC046E9
:1001F0000029F7D076E770477047C0460D4885461E
:1002000002F06AFC0C480D490D4A002302E0D45864
:10021000C4500433C4188C42F9D30A4A0A4C002350
:1002200001E013600432A242FBD302F03BFF01F075
:1002300095FCFEE7FC1F002000000020C402002007
:10024000B8310008C4020020B4170020FEE70020E7
:1002500070478A1892B24000914201D8824201DB75
:10026000121A92B21000704710B54B6902490B6127
:100270000121984710BDC04660170020FA2110B533
:100280000D4B040089001868FFF72CFF80236043A2
:1002900001385B0498420DD2C021084A090650601B
:1002A0000748036A1B021B0A0B4303620023936087
:1002B0000733136010BDC046B400002010E000E01A
:1002C00000ED00E00121024A13688B431360704780
:1002D00010E000E0FA2110B5124B04008900186804
:1002E000FFF700FF802301385B04984201D301200F
:1002F00010BD0D490D4A4860C020136A00061B025C
:100300001B0A034313620020072388600B60032C41
:10031000EDD8136AA1071B021B0A0B431362044B9F
:100320001C60E5E7B400002010E000E000ED00E014
:10033000B00000200C2210B5194BD9680A40082AD9
:100340002CD00C2A0CD0042A20D118681023184075
:1003500043425841134B40421840134BC01810BD44
:1003600012488A02120F825C0902D868890F013193
:10037000C00304D50E485043FFF7B4FEEFE71B68F7
:10038000DB0601D50848F6E70A48F4E780205B68F9
:1003900000021B045B0F01339840E0E70448DEE7EE
:1003A00000100240001BB70000093D007931000831
:1003B00000127A000024F400012170B53F4E404B3A
:1003C00034689A690A4200D06DE0022299691142AC
:1003D00000D09A619A69D20515D49A69920512D40F
:1003E0009A6952050FD49A6912050CD49A6992043D
:1003F00009D499698022080092021040114202D16A
:100400009A69D2034ED598698021020049000A40BA
:10041000084205D002222B484469224342610A0067
:10042000802099698000014205D00121254C0243BA
:1004300065692943616180209969C000014205D046
:100440000821204C02436569294361618020996934
:100450000001014205D004211A4C02436569294379
:100460006161802099698001014205D01021154CFD
:1004700002436569294361619969890305D5202093
:10048000104C024361690143616180209969400217
:10049000014205D040210B4C02436569294361614B
:1004A00001209A6170BD421C00D18AE73268064D76
:1004B000121BAA4200D884E70320F3E78C15002022
:1004C000002002401805002050C30000F7B57F252A
:1004D000C4090540A01C0190080060400023844628
:1004E000174A019ED8B2965D002E06D056788E42ED
:1004F0001FD11678AE421CD1FEBD012906D1104F86
:100500009E00BE196644B678002E12D11678FF2ED2
:1005100001D0AE420DD15678FF2E08D1084A9B007B
:10052000D554D318012259701B199A70E4E78E42F2
:10053000F4D001330432082BD3D10020DCE7C046CD
:10054000D6150020F7B50D4C0D0000190700530813
:100550000193019C013C06D2D20703D55B00CA5C23
:10056000C0180280F7BD01942C78A44666466C78CA
:100570000235240234433C800237EAE70060004041
:10058000F7B50D4C530809190F0004000193019DA4
:10059000013D06D2D20703D55B00C9180A88C254B0
:1005A000F7BDFF2601953D8802372E402D0A2670A3
:1005B00065700234EBE7C04600600040F7B5A0224A
:1005C0000023D20501680C00DC4000D1F7BD0124F6
:1005D0000D009C4025400095214200D184E0032578
:1005E00003265F00BD404168ED43314001390129D8
:1005F0000FD8C1689668B9402E40314301269160FA
:100600005168A1430C0041680909314099402143D8
:100610005160032641683140B14220D08168D468DE
:10062000B9402C402143D16041683140022916D1A4
:10063000A024D908E4058900091907241C40A40056
:100640000C36A640B4460191096A0E0061468E43FD
:10065000B44606696146A6400E4301990E621468CD
:1006600041682C4003252940B9402143C024116032
:100670004168A402214237D003261C4C023D616B25
:100680001E402943B6000E35B5406163184C9908E9
:10069000890009198C68AC438C601649009C8E68EF
:1006A000009D4768E4433543FF0201D435002540EF
:1006B0008D60CE68009D47683543BF0201D4350088
:1006C0002540CD604E68009D47683543BF0301D487
:1006D000350025404D600D68009F46682F43F603A6
:1006E00001D425402F000F6001336BE7001002405A
:1006F0000000014000040140002370B5FF211D00EF
:10070000154C164A23800133117051709570D570C5
:100710000432082BF7D100210800FFF7D7FE002193
:100720008020FFF7D3FE40220D4BC0219D739D77A3
:1007300080259A819A830B4B0B4819800B4B4039CB
:100740009A806D0119800288DD80094B1A40094B9F
:1007500053400380218070BD4C5C0040D6150020C2
:1007600058160020D4150020005C004000600040B6
:100770007070FFFF202200008022044B1206DA670F
:10078000BFF34F8FBFF36F8F7047C04604E100E0A7
:10079000BFF34F8FBFF36F8F8022024B12061A6098
:1007A0007047C04600E100E010B5002802D0FFF716
:1007B000EFFF10BDFFF7E0FFFBE70000F0B58FB0E3
:1007C00006914289038907009B1A8089191C9BB2F4
:1007D000834200D9011C8BB20193069B6F499B0099
:1007E0005B1809936E491B8819430891C021C90001
:1007F0000B4000210793802304910799DB00994265
:1008000003D1089B5B06DB0F0493069B04995B00F6
:100810005B1864499B005E5A7D68019BB6B2002D4F
:1008200000D1B1E0002B65D02C896A89A988A0B2DB
:1008300093B2944200D284E0C21A92B2914206D29C
:10084000884200D281E00A00431A9BB26B81944631
:1008500002920592002A00D08CE06B4601999B8899
:10086000914200D9131C9AB2019B9B1A1C1C9BB28B
:10087000634500D96446A4B213199BB211000A93D0
:10088000012399431A4003910B92002904D00A00D6
:1008900030000599FFF756FE039BF6180B9BB6B286
:1008A000002B19D0039A059B9B5C0CAA911DD38049
:1008B000002C09D0029A013C1278A4B21202134310
:1008C0000B80029B013302930CAB30000222991D76
:1008D000FFF738FE0236B6B2002C04D022003000FA
:1008E0000299FFF72FFE6989A8880A9A89B2FFF753
:1008F000B0FC688130247B89019AD3187B81069BE8
:10090000049A5B009B18274A9B009B185A88920AFE
:100910009102019A9205920D0A435A80089B079A08
:100920005C408023DB009A4201D10123FB731E4B04
:100930001C40FFF721FF099B1C80FFF729FF0FB028
:10094000F0BD4A00D21A821877E70A0043189BB21A
:100950006B81994211D92C680294E418059498424D
:100960000ED8C81A511A5B189BB29C4682B274E723
:10097000401A80B28142FBD9EBE75B1A9BB2E8E7F1
:1009800000239C46029368E7002BB3D039683000FF
:1009900089181A00FFF7D6FDACE7C046005C00409E
:1009A0008080000000600040BF8FFFFF7F2270B595
:1009B000C10910404000114B401800011B189C7BDE
:1009C0000F4BA400E41822880E4B92B201290ED1DD
:1009D0000D490A40134304229BB2012595405D4016
:1009E000ADB2FFF7C9FE2580FFF7D2FE70BD074903
:1009F0000A4013439BB20C22EFE7C0465816002072
:100A0000005C00408080FFFFBF8FFFFF8FBFFFFFB4
:100A1000F8B543005B182E4F1B01FB180E00997BA5
:100A20004301012E04D11033D819FFF7C7FEF8BDDA
:100A3000284A8C00A4182588274AA8B21540274ABE
:100A4000FF181543BA893F893B1C974200D9131CF4
:100A5000C0228027D20010409BB2FF00CA00B842DB
:100A60001FD13E2B19D901261F335B09DBB29B1B1B
:100A70009B02F60333439BB2002B01D180231B0260
:100A8000174952185380D380C0239B015D40FFF764
:100A900073FE2580FFF77CFEC9E701335B08DBB2FC
:100AA000E5E73E2B0FD901261F335B09DBB29B1B09
:100AB0009B02F60333439BB2002B01D180231B0220
:100AC00007495218DFE701335B08DBB2EFE7C046A6
:100AD00058160020005C00408FBFFFFF80800000A0
:100AE00000600040034B044A9A8700223E331A708C
:100AF0007047C046300D0020023A000010B50400D7
:100B0000FFF754FF7F23084A23405B00D3180222DB
:100B1000E4091B190533D97F0A43DA770122D97F0B
:100B20000A43DA7710BDC0467A170020114B124AEB
:100B300010B5107018000224303004701800996845
:100B40009A6B3C308A1A9A620078002804D10B4CC8
:100B50009C871C003E342070002908D0002A06D053
:100B60001A7BD20904D02E331878FFF7C7FF10BDC7
:100B70002F33F9E7300D00205C0D00200520000028
:100B8000F7B503007F200E001840D9090D4B470030
:100B9000DB195B1801920533DC7F0025E4070FD4D5
:100BA0000124DA7F7F182243DA77074B019A3F014D
:100BB000FE50DB195D605D811A812500FFF728FF7B
:100BC0002800FEBD7A17002058160020F0B54B799A
:100BD00085B0082B02D0002005B0F0BD8B79062B24
:100BE000F9D1CB79502BF6D1162AF4D95A4B8A7801
:100BF0001A7002230C780C1902936378052BEAD142
:100C0000E3789B079B0F022BE5D1A57876331D4235
:100C1000E1D1637922791B021343504A5E05927831
:100C2000760D022A78D180239B009E42D3D10221E7
:100C30002800FFF74BFC4A4A83009B188022802142
:100C400052422A43D2B2090211430393454A1B88F8
:100C500013401943E37801919B079B0F022B06D0A9
:100C6000032BB8D1C0230A00DB001A4301923E2EA9
:100C700066D9330020221F335B09DBB23A4F5A4357
:100C8000BC4663463F88BA1892B21A808023DB00C4
:100C90009A4200D9354F0123EA0953409C4643004C
:100CA00063449B001900324BCF527F231D406D00DF
:100CB000304BAD182D015B199E8198730C23012ACE
:100CC00000D1083B02259D40019B5D40012A3CD19B
:100CD000294B1D40FFF750FD039BADB21D80FFF770
:100CE00057FDA278254BD109012931D119002E31A8
:100CF0000A702278A418029A012A0BD11A00002146
:100D0000303211702F331F221D491878FFF738FF3A
:100D1000172061E701236FE7202E0DD8FF22D200B4
:100D2000134200D157E73200164B083A92B2D34033
:100D3000DB0700D57BE74EE7402E00D177E74AE797
:100D4000731C5B080222DBB298E770239D43C1E766
:100D500019002F31CCE7C0465D0D00207A17002026
:100D6000005C00407070FFFFD4150020FFFF000002
:100D70000060004058160020FF8FFFFF300D00205C
:100D80003005002001010001104B10B5104C002B64
:100D90000CD0607B00E000BF002807D10D4BA3877B
:100DA0003E3420700130FFF7C1FE10BDA36BA26876
:100DB000D21A80231B019A4200D91A002F34064907
:100DC000207892B2FFF7DCFEEFE7C046000000009B
:100DD000300D00200727000030050020802300226E
:100DE00010B5834318001100FFF7CAFE10BD0000C4
:100DF00070B5074C050001000822200002F086F9BA
:100E00000023A360E3602878FFF7E8FF70BDC046C9
:100E100060170020F8B50589078946890400828893
:100E2000ADB2BBB2B0B2B74207D31B1A9BB29A4263
:100E30001BD8E079C00918D1F8BD5600301A1B182C
:100E4000F4E7801A80B29042FBD2E2882368520411
:100E5000520C5043181802F059F901222900A088B9
:100E6000FFF7F7F920810120E6E72800EBE7000013
:100E700070B50B4B996B9A68521A9A621A0003214B
:100E80003032117007491A000800203270CA70C051
:100E900012782E33027018780D22FFF771FE70BDA4
:100EA000300D00203005002070B5124B9E89DC8982
:100EB000321B151C92B2402A00D940251A78ADB2D7
:100EC0007F2A0DD9A64211D00B4C99682A00200028
:100ED00002F01CF9802021002A00FFF751FE70BDAE
:100EE00000200100A642F7D00349F5E78020002149
:100EF000F2E7C0466017002094150020F8B5104DA9
:100F000004000F00160001000822280002F0FEF87D
:100F10000023AF60EB81E379A2791B0213431A1C13
:100F2000B34200D9321CAA81E379A2791B02134390
:100F300002D0FFF7B9FFF8BD2078FFF74FFFFAE7BF
:100F40006017002037B51400012915D110787F23D0
:100F500002001A40022A34D16278012A31D1E278A3
:100F6000A57812022A432CD1354920790978354ACF
:100F7000042903D1FFF7C2FD012008E014002E343C
:100F80002478844204D10229F6D1FFF771FF3EBDD7
:100F90002F3212788242EFD10029EDD103401A009E
:100FA000294B52009B18C1095B180533DA7FD20721
:100FB000E2D4DB7F9B07DFD41F222449FFF7E0FD4B
:100FC000E5E760231840202809D16378FE2B19D06B
:100FD000FF2B04D1E378A2781B02134301D0002039
:100FE000D5E7E379A2791B021343F8D1154A1449D6
:100FF00053639363938720003E320B701370FFF7A7
:10100000F7FEB9E7E378A2781B021343E7D1E3794F
:10101000A2791B021343012BE1D16A46D3710C4B19
:10102000D51D002B03D000E000BF011ED7D0013931
:101030002970012229002000FFF760FF9CE7C046CD
:10104000600D0020300D00207A17002030050020B0
:101050000000000070B505000024134B1B78A3426C
:101060000FD234220021114802F040F81022FF2153
:101070000F4802F03BF81022FF210E4802F036F82C
:1010800007E0A34206D90C4B62011B689B18002B9A
:1010900004D170BD094AE31A5B019B182800DB6884
:1010A00001349847E4B2D8E7781700207A17002077
:1010B0007E1700208E17002074170020983100083A
:1010C00010B540220021024802F010F810BDC046C1
:1010D000300D002010B540220021024802F006F831
:1010E00010BDC046300D002070B5174C227A002A82
:1010F00005D00422154B1A60FFF7E4F870BD236891
:10110000002BFBD0124B197800290BD003251A7045
:101110000E4B19201D60FFF7B1F82A000D480E494B
:1011200001F0F4FF626823689A42E7D30422074B78
:101130001A60FFF7C7F8BFF34F8F084B084ADA6011
:10114000BFF34F8FC046FDE7700D00205C170020F5
:10115000AE000020581700202631000800ED00E006
:101160000400FA05F0B5B04C8BB00590E18AA66892
:10117000002905D049BA89B23000FEF7B3FF81B229
:101180002369277DA46B1B0A20003F061F43FFF73E
:101190002FF8331B02938023029A3FBA0D00C71920
:1011A0001B019A4200D90293A04C00212000029A10
:1011B00001F09CFF002D21D19D4B00950193029BD6
:1011C000009A934221D89B4B1878002A00D024E142
:1011D000059B07AC237007236370974B20711E6833
:1011E00009923500627108CD10009847210028004F
:1011F000FFF710FE01203368984704E0FFF772FC08
:101200000120FFF793FC0BB0F0BD802200212000ED
:10121000920001F06BFF002F17D13E22200087497A
:1012200001F074FF5523019A9370DB18D37080226C
:101230008023920094469B00E418009B013763448E
:101240000093019B63440193B9E781239B009F4274
:1012500039D881227B1E5200934201D33B1FFF3BB2
:10126000774A1902D58F08006A1C8025AD00AC466C
:1012700004922200A44400250395049D461C854247
:1012800001D9B0B203900398108002323000624559
:10129000F1D1002B06D1F833237007336370013B83
:1012A000FF3B638000226748C38A994206D85B1AD5
:1012B000FF2B03D801255B006D421D53013218300E
:1012C000032AF1D1B3E782239B009F4251D85E4BA2
:1012D0009F4242D12500230020205C490B350A782B
:1012E000002A38D001311A700133AB42F7D12823DC
:1012F000E37223000021203318224A435148121878
:1013000053488446022992D8908A1D000390160003
:1013100018000B3504953578002D23D00136057063
:10132000049D0130A842F6D1642000255873604620
:101330009D826546D8814748DD821882588218838D
:1013400003985883D06800280ED01069D861013105
:1013500020331832D6E70200C5E73F4B3901C918E0
:101360002300C9E72025DAE73C480068000A40026C
:10137000ECE73B4B9F4200D959E73A4B3A48F91802
:101380000023304A3818958A854202D8D58A85428A
:1013900004D201331832032BF5D1013B18225A43F2
:1013A00028488018828A891A8D1C022B14D0026961
:1013B0006D02954200D33AE78021521B89008A4290
:1013C00000D90A0018214B431E48C018C1682000EC
:1013D000491901F09BFE2AE78022244B1205C91807
:1013E0001E4B09021B689818814200D31FE7204852
:1013F000019A20601F481B0A60601F481060A361AB
:101400008023802220009B01A3601C4B5200656159
:10141000E1602261E3612030DBE76B4603491A8813
:10142000FFF7AEFBEFE6C046300D00203005002090
:101430002C0700205E0D0020B01700207000002057
:101440004002002038020020050200009B0000201E
:101450003DB4FFFF475C0000AFDFFFFF90150020A9
:1014600008010100F7FDFFFFF9FDFFFF4200080042
:101470005546320A57515D9E306FB10A913A2E207F
:10148000F0B59BB00193A54B02901D7808009C46D7
:10149000A34C012D00D1A6E1032D00D1E9E2002DDE
:1014A00046D123002F331B788B4202D001201BB082
:1014B000F0BD019B1F2B04D19A4B9B4A1E6896429C
:1014C0000ED02300042230331A7023002E331878F4
:1014D0002F34FFF713FB2078FFF710FB0020E6E71F
:1014E0002200C2CBC2C2C2CBC2C21E680221166099
:1014F0009E8896809B7993718C4B624623626368C9
:10150000A562636223002C331D7001231370E37BFB
:10151000A5631D00A2688D436263282D3DD1E08A3A
:10152000002A24D1002800D159E10220FFF7FEFA59
:101530007A4B7B491B78022BB8D10B007F222E33CC
:1015400018787B4B02405200C4099B181B190533C5
:10155000DB7F9B07AAD48A688B6B9A4200D8E5E2AE
:101560000B7BDB0900D1E1E2FFF7C8FA9EE7217BA4
:10157000C909282B0ED10029D7D0002816D040BA8F
:1015800080B28242D1D3282B00D0E6E10298FFF747
:10159000E9FDCDE70029F0D0C7E7002A0FD0217B75
:1015A000C9090CD180231B019A4201D90120BDE752
:1015B0005C4992B2FFF7E4FA0028B9D18EE7667B66
:1015C000252B09D8192B17D8032B00D1CAE0122BD1
:1015D00058D0002B00D1FDE0564A514B117800291C
:1015E000E4D1DA7B1E2A00D1F4E0534A586B9A8783
:1015F0003E33197080B2EAE01A3B18000B2BEBD88F
:10160000FEF766FD7900E800EAFFEAFF0C00EAFF5A
:10161000EAFFEAFFEAFF3300EAFF1F00474B002B17
:1016200000D1D7E03000227DE17C00E000BF00283F
:1016300000D0CFE03C342378002BCDD1FFF752FA15
:10164000CAE7384B3E4A08201A60802292025A604C
:10165000334B9A68002AA9D0904200D910005863F1
:101660002E3382B22F491878A4E780231B051193EB
:10167000344B11AA1293344B13932A4B31CA31C302
:101680000C20E5E7314B422111931F2308AA129346
:101690002F4B521813802023053108AA52180AAE86
:1016A00013700DAD092230002A4901F02FFD2A499F
:1016B00028000F2201F02AFD284A13AB099203CE1D
:1016C00003C3280062C862C3018811AC1980442199
:1016D00008AB5B181A803023023108AA521811494E
:1016E00013700B00220031CA31C313CA13C313CACB
:1016F00013C32420ACE71A4A0123002A03D0300088
:1017000000E000BF0300012058400323C0B2C00521
:10171000044A0343136004209AE7C046600D00208A
:10172000300D00203005002055534243555342539D
:101730007A1700206C0D002005200000000000003A
:1017400000010108000101090200020000800202FC
:10175000202000002931000832310008312E3000ED
:101760000000000023003C331D7823003D331B782C
:101770003E340193237811AC122200212000029301
:1017800001F0B4FCF0232370E63BE371019B0F27CB
:101790002373CD49029B3D4063730B003D40A57010
:1017A00025CC25C3226812201A60A2889A80C74BD4
:1017B000002B04D080223000120100E000BF002284
:1017C000C34B9A873E331A70904200DA04E7002830
:1017D00000D03DE7BE4B9B68002B00D0E6E602221E
:1017E000BC4B1A70A4E68023019A1B019A4200D9CF
:1017F00074E6E17B282906D1A36BD318626BA3633F
:101800009342ECD2C2E62A2900D01FE10023AE4F5A
:10181000049394E0B04B3A689A4200D086E0AF4B14
:101820007A689A4200D081E0FE225200AC4BBA584E
:101830009A427BD1AB4ABB681340013A934275D1BF
:10184000A94BFA699A4271D1FB680293029AA74B9D
:101850009A424AD93B69A64C0393012362681A4213
:1018600037D1022362681A427AD17F22029B039900
:10187000029D5B18013B934395430793079BAB4243
:101880007CD20025039BAB421ADD3900039A20313C
:10189000EB1C49199A4200DCBCE00B681193954E91
:1018A000337C012B0CD0119B934806930123337496
:1018B000FEF782FD0590002800D1B4E000233374C8
:1018C0000223626813436360012362681343636009
:1018D0000BE0EFF3108272B68849E1608849E1605D
:1018E00082F3108862681A42BBD0BB69002B1DD0FE
:1018F000844A85491068834206D08B4201D800286B
:1019000001D001235B4213607B698B420ED8072014
:10191000012118408140DB08D3185C7AC8B221420B
:1019200004D12043587253680133536080228023CE
:10193000920094469B00FF18049B63440493019B10
:10194000049A934200D965E7614A0199936BCB18D9
:101950009363526B934200D341E7FFF715FAE7E533
:10196000EFF3108272B6694921616949216182F3FE
:10197000108862681A4200D177E7B6E7F8231B06A1
:10198000EB18DB090693069A624B9B5C002B00D098
:10199000DEE029002B0080311A68013200D0C8E057
:1019A00004339942F8D101215A4B069A9954CFE059
:1019B000002280214F4B89005A6163684E480B43D7
:1019C00063606368F939FF390B4363603260FEF787
:1019D000F3FC08216368504A8B43636063681340DB
:1019E0006360002814D180362B008033B342DFD8E7
:1019F0000022404B1A74059B934200D0A8E00120BE
:101A00004042FEF7D9FC0028CDD0A1E02E00EBE744
:101A10000590EDE701235B421193039B11A85A1B2C
:101A200001F074FB3BE7059B069A7361029B324809
:101A3000EB181A60FEF7C0FC059B3374002800D039
:101A40003EE70138FEF7B8FC04351BE7A36B019AAB
:101A5000D318227BA363D20906D11E2904D02F49B3
:101A6000A18721003E310A70626B934200D3B6E633
:101A70005EE523002E331B788B4200D058E5019B96
:101A80000D2B00D054E5E37B282B09D02A2B16D050
:101A9000234B002B0AD02349607B00E000BF05E008
:101AA000214B002B02D0607B00E000BF230000220E
:101AB00030331A702F34044920781F327AE5607B66
:101AC000FFF712FBF2E7C0463005002000000000DF
:101AD000300D0020600D00205546320A57515D9EA2
:101AE000306FB10A01200000913A2E20FF3F00081C
:101AF000002002401805002050C30000EFCDAB8944
:101B000005040302700D002063400000BFAE9D8CF1
:101B10001615141396030020FFFDFFFF052000009B
:101B2000000000003F0D002000000000FFF7A0F9BA
:101B3000BDE4084E337C012B0AD0012306483374E0
:101B4000FEF73AFC0590002800D15FE700233374CC
:101B5000803593E61805002050C30000F0B5784E9C
:101B6000032097B0FEF7B6FB3268764B764C1A40EE
:101B700080231B0113430C223360E3681340E268A7
:101B8000042B03D00C2B20D1D2031ED4236862680F
:101B90006E4B1A4080235B01134363600923226864
:101BA0009A43083B13432360FEF7C4FBE368684A8B
:101BB0001B061B0FD35C6749D840674B0860186849
:101BC000FEF788FB002813D0FEE7092304212268D2
:101BD0009A43083B1343614A2360106823680B4211
:101BE00051D06268594B1A4080235B0113436360F4
:101BF00001220221236D594D934323652868236DEB
:101C00001A000A400B4243D18023A16B5B051942A5
:101C100003D1A26B13430122A363802331685B00CD
:101C200019423AD0236D4E494E4E0B402365236D29
:101C30004D490B408021236528688900236D0B42A4
:101C400037D1012A03D1A36B484A1340A363012370
:101C5000A26847491A43A260626B134363638023FF
:101C60000A6A9B01134302220B622968A36813428C
:101C700024D0F0213F4B1A68E2688A43E260226870
:101C8000520720D4FEE713681B1A022BA6D99BE744
:101C90002B681B1A022BB2D996E7316819433160C1
:101CA000286831681942BDD12968091A6429F8D910
:101CB0008AE72B681B1AB342C0D985E72B685B1AE9
:101CC000022BD3D980E70322E168264E9143023AE2
:101CD0000A430C21E2602868E2680A400192042A63
:101CE0001CD11968033A11421DD1E368224A1340FE
:101CF000E360E368214A1340E360FEF71BFBE368FF
:101D0000134A1B061B0FD35C124ED840124B306097
:101D10001868FEF7DFFA071E32D0B3E72A68121AF6
:101D2000B242D9D9AEE719680E4E914319602868BE
:101D300019681142D9D02968091AB142F8D9A1E726
:101D400000700040FFE7FFFF00100240FFE0FFFFD0
:101D500069310008B4000020B00000208C1500207C
:101D6000FFFEFFFF88130000FFFBFFFFFFFFFFEFF9
:101D70000000014000200240FFF8FFFFFFC7FFFF07
:101D80000123626B134363638023E26CDB04134320
:101D9000E3648023A26B1B051A43A263A26A134368
:101DA000A362A36A9A4A1340A3629A4A9A4B5A6062
:101DB00019689A4A1140802292010A431A606022EF
:101DC00019680A431A600223A2681A42FCD00C2246
:101DD000E3681340042B00D1F7E0082B00D114E195
:101DE000002B00D0F9E08020636800021B045B0F29
:101DF00001339840E3688A4A1B061B0FD35CD84026
:101E000030600126FEF75EFAE36A11A83343E3620D
:101E1000E36A33400693069B0223E26A1A43E262B6
:101E2000E26A14931A400592059A002211961292C2
:101E30001396FEF7C3FB7B4B002B01D000E000BFE5
:101E4000A023DB051B69334200D12AE1E021764B58
:101E500009061A68754B521880211B6889018A424D
:101E600000D91EE1724A9B18C0221202934200D987
:101E700017E1704B002B00D00EE16F4E6F4B3268B4
:101E80009A4215D06E4900238A4200D1C1E16D49C2
:101E90008A4200D1BBE16C4F316001203B60FEF70C
:101EA000EDF9FA235B003A689A42FCD3FEF70AFA8E
:101EB00000233360654B002B01D000E000BF644B72
:101EC000002B01D000E000BF0F21574B1E68574B7D
:101ED0001F68604B9B680B4211D101225E4B186852
:101EE00090431860586890435860D8689043D86011
:101EF00098689043574A986093688B439360A023F7
:101F000003200F21DB051A6802431A601A6A8A430C
:101F10001A62DA680E398243DA605A688A435A6074
:101F20009A6882439A600222E36A8B43E362E36A1F
:101F300080219343E3626268484B89001A40B023D2
:101F40001B0213436360802322685B0013432360FA
:101F50002A6823680B4200D16AE10321E368404804
:101F60008B43E3600931E3680B4200D072E13D4BE3
:101F70003D4A1A603D4B1868FEF7ACF9002800D0C6
:101F80005BE123683A4A8021134080222360236862
:101F9000520213401193119B364A2368364D134069
:101FA00023602B6889049C46344B186802000A4061
:101FB000084200D054E1DA601A61314A9A61802205
:101FC000196D12040A431A6537E120682D4BC006CB
:101FD000C01718402C4BC0180CE7E3682B4AE16887
:101FE0009B021B0FD35C0902E268890F0131D20307
:101FF00009D42268D20604D525485843FEF772F862
:10200000F8E62148F9E72348F7E72248F2E6C04618
:10201000FFFFFFF77FBB2220006C0040FFC0FFFFE7
:10202000693100080000000000400008044000087A
:1020300000C0FFF700000000FC1F0020EF6926F041
:10204000B40AE8F5EF6916F08815002000000000DA
:10205000000000000000014000040140FF00FF00FC
:1020600088130000B400002068FF1F00B0000020AB
:10207000F4FFF6FEFFFFFBFF8C150020001002406E
:10208000FF01000000E548FF0024F400793100085A
:1020900000093D0000127A0000E000BF002800D0D7
:1020A000EBE6C0235B01119303230025149311A8D1
:1020B000013B129315931395FEF780FA8023A26BD0
:1020C0001B041343C022A363CE4B12021A60C0222A
:1020D000CD4ECE4B520230001A64FDF7F1FF802244
:1020E000FF3204000300121A082A26D91122C84917
:1020F000361811A801F00AF80F22C021AB005B428C
:102100001C330902D94034200B0004A913400918DC
:10211000CB5C73550135082DEFD10023802233723B
:102120002300FF320833D21A062A06D9B648B94925
:10213000181800F0E3FF23000E3303240220B34AF3
:10214000136113699082D9054D1EA9415B0AC3181A
:10215000CB1898B2013C431EA4B2D3821832002C93
:10216000EFD1AD4D2B78FF2B00D088E03422210039
:10217000AA4800F0BBFFAA4BAA4A1C70AA4BDC81FC
:1021800013609C81A94BAA4C002B04D0200000E0D6
:1021900000BFA84B18602378BB4268D200232B7085
:1021A0000993099BC72B00D884E00323A249CB875E
:1021B00000230893089BC72B00D87FE00222CB8F17
:1021C0009343CB8700230793079BC72B7AD9002320
:1021D0009A4ACB8713809A4AD3879A4A13809A4A9D
:1021E0001380938013819381138293821383DD2262
:1021F000CB8F12021343CB87FEF77EFA8021934ADE
:10220000090213880B431380FEF7C2FA37E03360EC
:1022100047E733601920FEF731F803228C498D48D7
:1022200000F074FF04228C4B1A60FEF74BF838E77D
:102230002B689B1A022B00D88BE60023874A136079
:10224000536093602361864A864B9A6086F30888C0
:102250003847FEE72B689B1A834200D883E6ECE7F9
:1022600060462A68121A022A00D89EE6E5E7BB42B9
:1022700015D9704B7A011B689B18002B13D10222D1
:10228000754B01201A60FDF7F9FF0322714876496A
:1022900000F03CFF604B1B78FF2B2CD1FEE7734A0C
:1022A000FB1A5B019B185B68002BE8D0013798474D
:1022B000FFB270E7C046099B013371E7C046089B37
:1022C000013376E7C046079B01337CE753005B1A76
:1022D000C3181DE0801881B223E0891A89B221E079
:1022E0002878FEF7B7FE14220021614800F0FEFEB8
:1022F0004A4B2A799A704B4B00201C6823689847F8
:10230000A589E3892289A8B299B29D42DED3431AF6
:102310009BB21D1E12D09A4204D29042DAD3811A87
:1023200089B2E1818A42D8D9628963685204520C29
:1023300051430AA8591800F0E9FE0125E1892A0055
:10234000208989B2FDF785FF2368E0810120984745
:10235000002D9FD00AAD687801380728CBD8FDF74B
:10236000B7FEBFFF080097038D038D031C00160303
:1023700090032878FEF76EFE002114223C4800F0FE
:10238000B5FE0222344B01201A60FDF777FF0322CD
:102390003549304800F0BAFEADE7214A1378002BEA
:1023A00000D177E71378013BDBB213701378D9B211
:1023B000002BA0D101260420184C2378334323702E
:1023C000631DDA7FB243DA77DA7F8243DA77A31DBF
:1023D000DA7FB243DA77DA7F254E8243DA772B78D9
:1023E0003161009360232A791340602B03D0402B86
:1023F00042D1204B33610020FEF7D8FA8020FEF74F
:10240000D5FA78E790150020B800002038020020A7
:102410004831000841310008C20200207A1700202C
:1024200079170020B0170020800200200000000073
:102430007817002074170020025C0040505C0040B8
:10244000065C0040005C0040045C0040585C0040BA
:1024500026310008581700205C17002010E000E02B
:102460000040000800ED00E020310008983100082D
:10247000601700204F020008D206D20E012A00D1B8
:10248000CAE1022A00D1F8E1002AB4D1202B17D1E9
:102490002B7A0F2BAFD8C54AE3181B7912789342D9
:1024A0000AD2C34A5B011168C9180029A3D00BAA3C
:1024B0000098FDF7D9FEF8E093429CD1BD49F6E7BC
:1024C000002B98D16879092895D8FDF701FE6201A3
:1024D0005A0194FF510194FF0A00DA0094FF1D0095
:1024E000220032000BAB03CB03C20020B24B012110
:1024F000186158619861B060F060FEF789FA0223B4
:10250000227813432370F6E6637811A90B70012239
:1025100048E1AD7963789D4253D06378002B20D099
:10252000A64AA749D38FA74C0B40D387FEF724F9BF
:1025300001220021FF20A44B9600013231530433C5
:10254000187058709970D970082AF5D1FEF720F9E3
:10255000C0229E4B9E4C1A80A6780098FEF77AFD0A
:10256000A6709B484570002D00D181E0994A5378B0
:10257000022B03D00022964B5A703CE701273024EF
:10258000D37999115B1139403B4049011B010B4341
:102590000178A1430B430370D37891781B020B435E
:1025A0009B188D4C0293029BA3420ED801228B4BA9
:1025B00005201A60FDF762FE89488A49032200F06F
:1025C000A5FD0BA8FEF714FC95E6637803970B2B8B
:1025D00003D1E37803932378E4186378042BC9D1FB
:1025E0000025029B1E1BB6B2704B1B78AB42C1D3B9
:1025F00011D96F4B6A011B689B18002BBAD03200AF
:1026000021001B690098984708282ED986422CD3B0
:1026100000226F490EE0674AEB1A5B019B18EEE758
:10262000A378D318DBB2CB181E79FF2EA2D10132CA
:102630001D71D2B2039B9A42F2D17F216A4E2018BB
:10264000A04205D8594B1B78AB4293D30400AAE7AC
:102650006378052B06D1A27813000B405B009B1911
:10266000D2099D542378E418EAE70135EDB2BBE7BF
:1026700002225A4B01201A60FDF700FE58485B49C0
:102680009CE7EB881A0A501E062800D9B3E6FDF72E
:102690001FFD070010001A00B2FEB2FEB2FE1000CD
:1026A000122253490BA8FEF729FC002800D022E68D
:1026B000A1E6022A00D09EE64E4B5A781978120203
:1026C0000A434449EEE7DBB2002B19D0032B24D098
:1026D000042B00D98FE6484A9B009C582000FDF748
:1026E000EFFC021CC0B2302800D93022D2B2434BDA
:1026F000A1180233A14207D0207801341880F8E7EE
:102700003F4A404B1A800122C0230132D2B23B49DA
:1027100052009B0013430B80C4E700243A4B374D13
:102720001B680D93394B1B680E93394B1B680F9335
:10273000384F1022390011A800F0E8FC0DABE65C20
:1027400034220F2304A989183340CB5C243AAB8090
:10275000390011A800F0DAFC342204AB36119B18C2
:102760009B5D01346B8004350C2CE1D11C3ACBE726
:10277000EB88012B00D03EE6227807331343237009
:102780001FE7EB88012B00D035E60822237893431E
:10279000F5E70222237811A998069B08C00F134081
:1027A000184308800BA8FEF7A9FBA4E578170020C2
:1027B000741700209831000858160020025C004071
:1027C000FFFDFFFF005C0040D6150020D41500205F
:1027D0007A17002090020020990200205C17002048
:1027E00058170020233100088E17002020310008E0
:1027F000B00200209202002084310008F61500206B
:1028000009040000F81500205000F81F5400F81FBC
:102810005800F81F483100082B7A0F2B00D9EAE541
:102820009F4AE3181B791278934221D29D4A5B019B
:102830001168C918002900D1DDE500980BAAFDF741
:1028400013FD002800D056E52A79602310001840B7
:102850001A4200D0CFE56B791A000A3A012A00D952
:10286000C9E530610A2B00D0ABE611A908704EE62D
:10287000934200D0BFE58C49DFE77822287A1042E6
:1028800000D0B8E50732024051009446C609844A98
:102890006418A419247D1278944219D2814A6401E3
:1028A00015682D19002B1CD10AAC637902221F0078
:1028B0009743012F19D0002B00D09CE57B4B5B1870
:1028C0009B190533DB7F11A99B07DB0F0B8069E7A1
:1028D000944200D0DFE0744D002BE5D029000BAA14
:1028E000E6E5002D00D186E5F8E7E288002A36D13A
:1028F000012B49D1624652006D4B0292921912018E
:102900009B189F7B6B4BBF00FF183C886A4B1C4396
:10291000012E35D14023694A13431C40C023802235
:10292000DB002340D200934206D00C22012E00D1BE
:10293000019A022393405C40A4B2FDF71DFF3C8046
:10294000FDF726FF0221029A584B9B189B1905336D
:10295000DA7F8A43DA77DA7F01398A43DA77002D22
:1029600000D1C8E40BAA29000098FDF77DFC0022E5
:10297000534B1A61534BDB7FDB0700D5BBE420E6EA
:102980008023514ADB01C7E7FEF7B8F8E7E77F2469
:1029900001262979454B0C4062009B18CF09DB19B1
:1029A0005A1DD07FB043D077D07F0336B043D07765
:1029B000002C49D1424C2E782378AD68DA09BA420E
:1029C0001BD0002D00D096E47F22134208D16378FB
:1029D000052B05D16288853B13433C4ADBB213804B
:1029E00080223B4B5201DA802369002B00D182E424
:1029F00022000321300098477DE47F2B07D8A06890
:102A0000002800D177E42A00324900F07FFBA26859
:102A1000E38952195B19A260E2889BB2E3819A4272
:102A200001D03F2D0DD82369002B03D12078FEF76C
:102A3000D5F960E422000221300098470028F5D142
:102A4000DAE4FEF731FA56E4154A1B7D1278934218
:102A50000ED214485A0103689B18002B01D1FFF7CE
:102A600019FC0AAD9C696A7928780C9BA04742E45E
:102A7000934201D0FFF70EFC0B4BF2E70B4B1B7898
:102A800039E46B68002B00D135E4A868984732E43C
:102A9000064BDB782FE40025002B00D0ABE403E7E6
:102AA0007817002074170020983100087A1700204A
:102AB00058160020005C004080800000BF8F00009E
:102AC00060170020801700208FBF00004C5C004082
:102AD000006000409415002070470000084B1A6801
:102AE00001321A60074A1268022A02D8002A04D169
:102AF0007047032AFCD11B68FAE71A68FBE7C04657
:102B0000881500205C170020F0B5A84B93B0DB8F30
:102B10009AB204929B053BD50024A54BA34AD387C8
:102B2000A44B1D886D056D0DA34B1B78A34245D2A8
:102B3000A24C23785B0715D504220E2023780021B0
:102B4000934323700CAB0632C01800F0CFFA002379
:102B50000CAA137305335373994B0FA918680430EB
:102B6000FEF758F9E378DB0712D50E200CAB0021F5
:102B7000C0180A2200F0BAFA00230FAC2370033306
:102B800063708F4B2100186810950430FEF742F9EE
:102B9000049B5B0528D58B4B844AD387FDF7ACFD9E
:102BA00080230CAA5B00938100231374844B0FA92C
:102BB00018680430FEF72EF913B0F0BDA34208D90F
:102BC000814B62011B689B18002B06D10134E4B2D3
:102BD000AAE77E4AE31A5B019B18DB69002BF5D05C
:102BE000290000209847F1E7049BDB041CD5042151
:102BF0000820774BDA8F8A43DA87DA8F8243DA87C5
:102C0000744B6A4AD387A0230CAADB0093816B4BD9
:102C10001A78D20708D51A788A431A70684B186850
:102C200040180FA9FEF7F6F8049B1B051CD50823D6
:102C3000674AD18F0B43D3870423D18F1943D187A0
:102C4000654A5A49CA8780220CA9D2008A815B4A08
:102C50001178C90708D511780B431370584B0FA989
:102C600018680430FEF7D6F8049BDB0510D55B49E5
:102C70000B78012B07D110245548C28FA243C2877D
:102C8000013B0B7001E0002BFAD1554B474AD3872B
:102C9000464BDB8F1BB2002B07DB049B5B0400D48D
:102CA0008AE7504B414AD38786E70F223F4BDB8FA1
:102CB0001A404D4B9700FF183B8802929AB21BB204
:102CC0000792002B35DA802310001B01474D484C3A
:102CD00018401A4200D19DE0029B4649DA00464B5B
:102CE000D3181B88521811889B059E0D89B2002BA2
:102CF00003D032000DA8FDF743FC3B883F4A2B4030
:102D000013439BB223403B80082E4AD1C0230CAA18
:102D1000DB0093810DAA10AB03CA03C3384A0FA985
:102D200013780133DBB21370254B18680430FEF7BB
:102D300071F88022079B1342AAD03B882B490F24AD
:102D40000B40304980250B4393433B80C023398897
:102D5000DB000C408AB22C481940ED006301A94207
:102D600013D1C118CD7F002D92D00025CD77012140
:102D70005206D20F5140029A520052182349920033
:102D800052181188890A89021180C218518B128B3E
:102D90008A4200D165E110330299C018FDF70EFD9B
:102DA00076E780221A4B5201DA80C2E7065C0040C7
:102DB000FFFDFFFF485C0040781700207A170020D5
:102DC000B0170020FFFBFFFF7417002098310008A8
:102DD000025C0040FFEFFFFFFFF7FFFF95030020BD
:102DE000FFFEFFFFFFBFFFFF005C00408F8FFFFF74
:102DF000FF7FFFFF04600040066000408080FFFF0F
:102E000079170020808000005816002002600040E2
:102E1000006000400F213B889A4A2B4013439BB22D
:102E200023403B803B889AB20992964A1A4311404C
:102E3000C022D20013400A93802305910A990122EF
:102E4000DB00994203D1099B5B04DB0F5A40029BD4
:102E50005B009B188C4A9B009A1812889205920D71
:102E600000928A4A9E5A059A894B520199184C68D9
:102E7000B6B20194002C00D1B2E0009B002B58D0D8
:102E80002300258964899B88AAB2A1B2A54200D2F9
:102E900088E0541AA4B2A34200D989E00023039326
:102EA00008936A461588009A9A4200D91D1C009B17
:102EB000ADB25B1B1C1C9BB2834200D9041CA4B2A4
:102EC0002B199BB22A000B9301239A4306921D40B3
:102ED000002A03D031000898FDF752FB069BF61834
:102EE000B6B2002D15D00FAD310002222800FDF73B
:102EF00047FB2B88089A069902365354B6B21B0A30
:102F0000002C0DD0039A013C137013000133A4B2BE
:102F10000393002C04D0220031000398FDF730FB0E
:102F2000019B0B9A1989988889B2FDF792F9019B48
:102F30001881059A564B52019B185889009A00999E
:102F400010189A8980B25881914202D31989884217
:102F500056D33E2A4FD901211F325209D2B2531AF9
:102F60009B02C9030B439BB2002B01D180231B02A0
:102F7000029A4849D20052181380E0220025059B8E
:102F8000434C5B01E41863890FA98B60424BD2006C
:102F900018680A80059A4D710A710430FDF73AFFEE
:102FA000A560C6E65C00641A141973E7D21A92B2DF
:102FB0009342FBD98B420BD9019D2D680395AD1827
:102FC00008958A4207D2891A00228BB2039268E7D9
:102FD000C91A89B2EEE79B1A121B9BB290B260E746
:102FE00000980028A5D0D0584989009A401831008F
:102FF000FDF7C6FA9DE7013252080021D2B2AEE7D2
:1030000080230A9CDB009C421AD0091A0B1C89B24F
:10301000914200D9131C9BB23E2B1DD901221F33B4
:10302000DB041B0E9B1A9B02D20313439BB2002BA3
:1030300001D180231B02029A1649D2005218138034
:10304000164B099A1A4013000E4A1343C0229201EC
:1030500053409BB23B806CE60133DB0500221B0E24
:10306000E0E7E0230FA9DB000B8080235B422343D2
:103070000B7100234B71084B8A6018680430FDF710
:10308000C9FE05E68080FFFF02600040006000404E
:103090005816002006600040B01700208FBFFFFFC9
:1030A0007047000070B500260C4C0D4D641BA41039
:1030B000A64209D10026FFF7F3FF0A4C0A4D641B14
:1030C000A410A64205D170BDB300EB589847013655
:1030D000EEE7B300EB5898470136F2E7B831000845
:1030E000B8310008B8310008B83100080300821870
:1030F000934200D1704719700133F9E703000A7851
:1031000001311A700133002AF9D17047002310B53C
:103110009A4200D110BDCC5CC4540133F8E70000E2
:10312000FF000000FF00CC660041646166727569B3
:10313000740055463220426F6F746C6F6164657223
:10314000002062797465730030313233343536379C
:103150003839414243444546007878307800535727
:10316000363300554632000904000000000000001C
:10317000000102030406070809030406080C1018DE
:103180002030000067310008593100085E31000826
:10319000840300206331000800000000C110000813
:1031A00000000000D5100008CD0B0008450F0008F6
:0831B00081140008000000007A
:1031B8003C21646F63747970652068746D6C3E0A95
:1031C8003C68746D6C3E3C626F64793E3C7363721C
:1031D8006970743E0A6C6F636174696F6E2E7265F4
:1031E800706C616365282268747470733A2F2F6756
:1031F80069746875622E636F6D2F787830782F73D5
:1032080077363322293B0A3C2F7363726970743E08
:103218003C2F626F64793E3C2F68746D6C3E0A00E7
:10322800EB3C905546322055463220000201010001
:103238000240000000F80201010001000000000047
:1032480009010100800029420042005357363342E9
:103258004F4F5400000046415431362020200100D1
:10326800040000000000200054696E7955463220A1
:10327800426F6F746C6F6164657220302E33352E27
:10328800302D35332D67643638303666622D6469E3
:10329800727479202D2074696E79757362202830D4
:1032A8002E31382E302D3330392D67326133363494
:1032B80063613237290D0A4D6F64656C3A205357A4
:1032C80036330D0A426F6172642D49443A205354D3
:1032D8004D33324C3035322D535736330D0A446155
:1032E80074653A2046656220203720323032360D28
:1032F8000A466C6173682053697A653A2030780011
:1033080000000000000000000000000000000000B5
:1033180000000000000000000000000000000000A5
:103328000000000000000000000000000000000095
:103338000000000000000000000000000000000085
:103348000000000000000000000000000000000075
:103358000000000000000000000000000000000065
:103368000000000000000000000000000000000055
:103378000000000000000000000000000000000045
:103388000000000000000000000000000000000035
:103398000000000000000000000000000000000025
:1033A8000000000000000000000000000000000015
:1033B8000000000000000000000000000000000005
:1033C80000000000000000000000000000000000F5
:1033D80000000000000000000000000000000000E5
:1033E8000000000000000000494E464F5F5546327D
:1033F80054585400B80000207F010000000000006D
:10340800494E44455820202048544D0000000020D3
:103418006F0000000000000043555252454E5420F2
:1034280055463200000000000000000000000000C7
:10343800A9070008C402002010000C0000000000CA
:1034480009022000010100A0320904000002080658
:1034580050040705010240000007058102400000F2
:10346800120100020000004055F0636301010102EF
:043478000301FF004D
:04000005080001FDF1
:00000001FF
