:100000002CC050C051C74EC04DC04CC04BC04AC0A0
:1000100049C048C047C0FEC645C044C043C042C0F6
:1000200041C000003A00370000003B0038000000EB
:100030003900360001010101010101010202020241
:1000400001020408102040800402010800000000A2
:1000500000040302010000009D0C11241FBECFE527
:10006000D2E0DEBFCDBF10E0A0E6B0E0E2EFFCE101
:1000700002C005900D92A839B107D9F720E0A8E990
:10008000B0E001C01D92AC3DB207E1F710E0CDE257
:10009000D0E003C02197FE01FFDCCC32D107D1F7BD
:1000A0000DD725CEADCFE1EDF0E0108211821282A6
:1000B00013821482158216820895E091BD00E13109
:1000C00050F4EF5FE093BD00F0E0E254FF4F808317
:1000D00081E090E0089590E080E00895E091BC0018
:1000E000EF5FE093BC00F0E0E254FF4F80810895A1
:1000F000FC0117820895813021F480B78F7780BF8B
:100100000895823019F480B78F7DF9CF833021F4C0
:100110008FB58F778FBD08958430E9F78FB58F7DC8
:10012000F9CFCF93DF93E1E5F0E08491E5E4F0E0EF
:10013000D491E9E3F0E0C491CC2399F08111DBDFA5
:10014000EC2FF0E0EE0FFF1FE25DFF4FA591B491A1
:10015000EC91ED2381E090E009F480E0DF91CF9114
:10016000089580E090E0FACF1F93CF93DF93282F7C
:1001700030E0F901E45BFF4F8491F901E05CFF4F4F
:10018000D491F901EC5CFF4FC491CC23A1F0162F60
:100190008111B1DFEC2FF0E0EE0FFF1FE85DFF4FA4
:1001A000A591B4918FB711110AC0F894EC91D09534
:1001B000DE23DC938FBFDF91CF911F910895F894D8
:1001C000EC91DE2BF6CF61E081E0CEDF60E081E0F4
:1001D000CBCF0F931F93CF93DF9360E080E0C4DF1A
:1001E000F2DFF1DFF0DF6091D70082E0BDDFEBDF0F
:1001F000D0E0C0E004E010E08091D6009801281B18
:10020000310961E02C173D0709F060E082E0ACDFC6
:10021000DADF2196C430D10579F76091D40082E00D
:10022000A3DFD1DF6091D30082E09EDFCCDF60915D
:10023000D20082E099DFC7DF6091D10082E094DFD5
:10024000C2DFD0E0C0E00CE010E08091D500980162
:10025000281B310961E0C217D3070CF460E082E08B
:1002600083DFB1DF2196CC30D10579F761E080E002
:10027000DF91CF911F910F9177CFE4E5F0E0E4910A
:10028000E13029F490B7906890BF86BF0895E230BE
:1002900029F490B7906290BF8CBF0895E33031F499
:1002A0002FB520682FBD9BBD8ABD0895E43031F481
:1002B0002FB520622FBD99BD88BD089560E08038BC
:1002C00091050CF061E088E04FCFCF93DF9387FD7D
:1002D0008F7790E0FC01E05CFF4F24918C5C9F4F96
:1002E000FC0184918823C9F090E0880F991FFC01DC
:1002F000EE5DFF4FA591B491FC01E85DFF4FC59104
:10030000D49161110DC09FB7F8948C9120958223F0
:100310008C938881282328839FBFDF91CF910895F4
:10032000623051F49FB7F8943C91822F80958323DB
:100330008C93E8812E2BEFCF8FB7F894EC912E2B76
:100340002C938FBFEACF3FB7F89480919D00909196
:100350009E00A0919F00B091A00022B708B600FEB9
:1003600005C02F3F19F00196A11DB11D3FBFBA2F47
:10037000A92F982F8827BC01CD01620F711D811D07
:10038000911D43E0660F771F881F991F4A95D1F78B
:100390000895CF92DF92EF92FF92CF93DF936B019C
:1003A0007C01D1DFEB01C114D104E104F10441F47B
:1003B00012C081E0C81AD108E108F108C851DC4F29
:1003C000C2DF6C1B7D0B683E734068F3C114D1041F
:1003D000E104F10471F7DF91CF91FF90EF90DF908E
:1003E000CF9008952FB7F8946091990070919A007A
:1003F00080919B0090919C002FBF0895982F82952B
:100400008F706AEFFCDA890F0895FC011682089557
:10041000CF93DF9387E087B9369A3699FECF84B1C0
:1004200065B1762F682F660F771F660F771F6115EE
:1004300084E0780714F06FEF73E0072E000C880B50
:10044000990B2FEF30E040E050E082DA2FEF33E0FD
:1004500040E050E096DACFEFD0E0C21BD10961E076
:1004600088E033DF60E0209721F0CF3FD10529F409
:1004700061E088E0DF91CF9177CECE01DF91CF911F
:10048000FCCECF93DF93EC01EF8130E020E0E83049
:1004900008F065C0F0E0E25BFD4F099407C023C09F
:1004A00030C047C085C0AFC027C140C18A819B8191
:1004B000993228F090E001966CE070E0C6DA811184
:1004C00001C08CE01092D1001092D2001092D300A3
:1004D0001092D4008093D5001092D6001092D700CD
:1004E00028EE33E03CC01092D1001092D20081E09F
:1004F0008093D3001092D4001092D5001092D600B1
:100500002AC08B8195EF980F9E3140F41092D10054
:1005100081E08093D2001092D300ECCF89528930D1
:1005200030F481E08093D1001092D200F4CF83E0C8
:100530008F838B8195EF980F9F30C0F41092D1007C
:100540001092D2001092D3001092D4001092D500D5
:1005500082E08093D6001092D70020E233E08F81B2
:100560008F5F8F83C901DF91CF91089596EE980F29
:100570009F3060F41092D1001092D2001092D300FC
:100580001092D4001092D50083E0E3CF89528930D5
:1005900060F41092D1001092D2001092D300109209
:1005A000D4001092D50084E0D4CF8F818F5F8F83E9
:1005B0008B819FEF980F9A3008F4A8CF90EF980F97
:1005C0009A3008F4A3CF91EE980F9A3008F49ECF9A
:1005D00092ED980F943008F499CF95EF980F9430DE
:1005E00008F49FCF96EE980F943008F49ACF97EDC9
:1005F000980F933008F495CF82538A3008F491CF46
:100600008F818F5F8F838B81882309F461C08B304A
:1006100008F458CF8F3060F41092D1001092D200BD
:100620001092D3001092D4009FE0981B892F52CFD4
:100630008F3009F44DC08A3150F41092D1001092DD
:10064000D2001092D3001092D4008F5043CF8E313D
:1006500050F41092D1001092D2001092D300109258
:10066000D4009EE1E2CF8E3199F1893250F410929C
:10067000D1001092D2001092D3001092D4008E516B
:1006800029CF8D3250F41092D1001092D2001092E6
:10069000D3001092D4009DE2C8CF8D32C9F08233CE
:1006A00050F41092D1001092D2001092D300109208
:1006B000D4008D520FCF8C3308F012CF1092D1009E
:1006C0001092D2001092D3001092D4009CE3ADCFD0
:1006D0008F818F5F8F8321E030E08B816FE0A9D91C
:1006E000992369F01092D1001092D2001092D30099
:1006F00081E08093D40000CF30E020E0EECF8F8106
:100700008F5F8F838D81882309F429CF1092D100C8
:100710001092D2001092D3001092D4001092D50003
:100720001092D60081E08093D70017CF30E020E010
:10073000E9CFCF93DF93EC012E812C3058F5822F37
:10074000809581708093D100822F65E072D981E01D
:10075000911180E08093D200822F63E06AD981E01A
:10076000911180E08093D30091E0822F837009F093
:1007700090E09093D40081E0820F8093D500109296
:10078000D6001092D7002F5F2E8388E790E0DF918C
:10079000CF910895203170F51092D1001092D200BF
:1007A0001092D3001092D4001092D50085EF820FE2
:1007B0008093D600822F809581708093D700E3CFFD
:1007C00020FD16C0809167001092D1001092D200D7
:1007D0001092D3001092D4008093D5001092D600CE
:1007E0001092D7008E818F5F8E8384E690E0CFCF0A
:1007F0005ADCF8CF2A3120F390E080E0C8CFDC014A
:1008000016962C911697273008F080C0E22FF0E062
:10081000E55FFB4F099406C02BC03DC042C055C0E8
:1008200058C05FC0809167008B7F813051F481E0B8
:100830008093D1001092D2001092D3001092D40075
:1008400025C013968C9113971092D1001092D2006C
:100850001092D3001092D4008093D5001092D6004D
:100860001092D70088EE93E02F5F16962C93089590
:10087000809167008B7F813021F31092D10010921C
:10088000D2001092D30081E08093D4001092D50062
:100890001092D60015C0809167008B7F813039F6A9
:1008A000ECCF14968C9114971092D1001092D20034
:1008B0001092D3001092D4001092D5008093D600ED
:1008C0001092D70080E293E0CFCF12968C911297CE
:1008D000BBCF1092D1001092D20081E08093D30060
:1008E000ADCF15968C911597882381F01092D10089
:1008F0001092D2001092D3001092D4001092D50022
:100900001092D60081E08093D700DCCF90E080E0A9
:10091000ABCFDC0116962C9116978091670086303C
:1009200009F073C0273008F07EC0E22FF0E0E656F1
:10093000FB4F099406C00FC025C032C045C048C057
:100940004FC01092D10081E08093D2001092D3006A
:100950001092D40020C013968C9113971092D1005E
:100960001092D2001092D3001092D4008093D50040
:100970001092D6001092D70088EE93E02F5F169663
:100980002C9308951092D1001092D2001092D300AF
:1009900081E08093D4001092D5001092D6000FC051
:1009A00014968C9114971092D1001092D20010924C
:1009B000D3001092D4001092D5008093D6001092EC
:1009C000D70080E293E0DACF12968C911297C6CFCF
:1009D0001092D1001092D20081E08093D300B8CF62
:1009E00015968C9115978823F1F01092D1001092F2
:1009F000D2001092D3001092D4001092D500109221
:100A0000D60081E08093D700DCCF273060F4E22F5E
:100A1000F0E0E45FFA4F0994C3CFD6CFD9CF91CF9E
:100A20009ACFB0CFDDCF90E080E0A8CFFC019681D7
:100A30009130D1F038F0923061F19330C1F130E073
:100A400020E023C084811092D1001092D200109235
:100A5000D3001092D4001092D5008093D60010924B
:100A6000D70020E233E011C082811092D1001092B1
:100A7000D2001092D3001092D4008093D50010922F
:100A8000D6001092D70028EE33E09F5F9683C9010D
:100A900008951092D1001092D20081E08093D3008B
:100AA0001092D4001092D5001092D600D8CF858134
:100AB000882329F21092D1001092D2001092D30014
:100AC0001092D4001092D5001092D60081E080934D
:100AD000D700C7CFCF93DF9387E090E0E3D7FC0147
:100AE00087E0DF011D928A95E9F783E790E0918323
:100AF0008083F093B100E093B00016828091B00043
:100B00009091B100DC01ED91FC910280F381E02D28
:100B10000995EC015EDBBE010D2E000C880B990BD4
:100B200038DCCD2B59F7BFDA54DB68EE73E080E098
:100B300090E0DF91CF912DCCDE98DC9ACC9BFECF5C
:100B40008AE08A95F1F700C0DE9A8DE08A95F1F788
:100B500000009EB1892F807295FD04C094E09093AF
:100B6000D000089581E00895DC9ADC9BFECF8DE0F3
:100B70008A95F1F70000DE988AE08A95F1F700C0C7
:100B8000DC98DE9A779905C083E08093D00080E0FE
:100B9000089581E008958EB98BE29DE09A95F1F772
:100BA00000008DB9CC9BFECF9AE09A95F1F700C07A
:100BB0008DB9769BF2CF8DE08A95F1F700008FB169
:100BC0009FEF9FB9D69A0895CF92DF92EF92FF924E
:100BD0000F931F93CF93DF93082F8091D0008160F4
:100BE0008093D0009091BE0090FD03C082608093FE
:100BF000D000BADF882319F1102FCEEBD0E0DD242E
:100C0000DA94CC24C3947E018FEFE81AF80A80911D
:100C1000D0008370D1F1DC9888818FB980EFBBDF81
:100C2000D6988EEFB8DF9091D00080FF15C0892F45
:100C3000817090FF0DC081E08093D00080E0DF9153
:100C4000CF911F910F91FF90EF90DF90CF9008957B
:100C500092E09093D000F3CF892F8570843061F4B7
:100C60008091BE0081608093BE00C092D0007CDF86
:100C7000811117C09AE0EDCF9E7F9093D000E701DD
:100C8000115009F0C0CF81E0DACFD69880EF83DF32
:100C90008883113021F4DFB88EEF7DDFF0CF1FB8ED
:100CA000FBCF102FCEEBD0E0EBCF1092BC0091ED3C
:100CB0009093BE001092D0008F5F86DF882319F0DA
:100CC0003BDF811103C08091D000089580E008953A
:100CD0008091BD001092D0008F5F76DF1092BD0032
:100CE000882319F029DF811103C08091D000089575
:100CF00080E00895FF920F931F93CF93DF93EC0151
:100D00001092BD0000ED0093BE0080E0D6D928818E
:100D10001AE0822F612F8DD666E071D6820FCDD971
:100D20002981822F612F85D666E069D6820FC5D9C9
:100D30002A81822F612F7DD666E061D6820FBDD9D0
:100D40008B81BBD92C81822F612F73D666E057D659
:100D5000820FB3D92D81822F612F6BD666E04FD6DB
:100D6000820FABD92E812E51822F612F62D666E081
:100D700046D6820FA2D9ACDFC82F1092BD000093D7
:100D8000BE008FE09AD9A4DF811104C081E08DDF1D
:100D9000A5D9F82E1092BD0080ED8093BE008FE0A3
:100DA0008CD98F2D8F7789D993DF8C2FDF91CF91BD
:100DB0001F910F91FF9008951F93CF93DF93EC0144
:100DC0001092BD0080ED8093BE0080E076D980DF78
:100DD000182F81111AC087E068DF80D98F770EDB6A
:100DE00088837CD90BDB898379D98F7B07DB8A8366
:100DF00075D98B8373D902DB8C8370D98F77FEDA38
:100E00008D836CD9FBDA825E8E83812FDF91CF9147
:100E10001F9108951F920F920FB60F9211242F93D6
:100E20003F938F939F93AF93BF938091990090913D
:100E30009A00A0919B00B0919C003091980026E010
:100E4000230F2D3768F129E8230F0396A11DB11D4B
:100E5000209398008093990090939A00A0939B0010
:100E6000B0939C0080919D0090919E00A0919F0066
:100E7000B091A0000196A11DB11D80939D0090939B
:100E80009E00A0939F00B093A000BF91AF919F914F
:100E90008F913F912F910F900FBE0F901F9018953B
:100EA0000296A11DB11DD4CF1F920F920FB60F92C3
:100EB00011240F900FBE0F901F901895CF93DF93C2
:100EC00000D000D000D01F92CDB7DEB781B781BF70
:100ED000789480B7826080BF80B7816080BF83B71D
:100EE000887F836083BF789489B7816089BF8EB51E
:100EF000887F8EBD8FB581608FBD8FB58D7F8FBD93
:100F00008EB5877F8EBD8EB58F7E8EBD8EB583608C
:100F10008EBD86B18877866886B9379A61E083E0AE
:100F2000D4D961E082E0D1D961E080E0CED961E03E
:100F300081E0CBD961E088E0C8D962E085E0C5D91D
:100F400060E087E8C2D961E083E00ED96AE070E032
:100F500080E090E01EDA1B821A82198281E08D8384
:100F60008E838F83CE010196C5DE6AE070E080E05B
:100F700090E00FDA4DDAAEDD43E8C42E40E0D42E27
:100F80005BE8A52E50E0B52E63E9862E60E0962E34
:100F900001E027E0722E34E0632E8091BB008111C6
:100FA00023C380916800882359F1809167008430C1
:100FB00009F0ADC0CE010196FFDE88E090E072D569
:100FC000FC0188E0DF011D928A95E9F74BE750E0CC
:100FD000518340830683F093B100E093B0008B818E
:100FE00021E08D3008F420E03A816CE022D59111A7
:100FF00001C09CE0928333831482258310926800A1
:1010000080916600811116C0EDD92091B700309112
:10101000B8004091B9005091BA0026173707480729
:10102000590740F48091B600811104C00093660016
:101030003AD8CFD880916800882309F4CFC1809135
:10104000B0009091B100DC01ED91FC910280F38140
:10105000E02D09951C01BDD8121413040CF484C2B0
:101060000093680020D8B5D860E083E07DD861E0C7
:1010700080E07AD861E082E077D861E081E074D8DE
:1010800061E088E071D864E670E080E090E081D9AA
:101090008BB780618BBF959A379885B7877E8061C3
:1010A00085BF85B7806285BF78948895F8949598B8
:1010B00085B78F7D85BF379A78941092B2001092D1
:1010C000B3001092B4001092B50061E088E0FDD842
:1010D0008EEF90E0D2D860E080E046D86AE070E021
:1010E00080E090E056D961E083E03ED8DCD771D84B
:1010F00066E970E080E090E04CD974D96093AB0071
:101100007093AC008093AD009093AE007AC1CE0195
:10111000019652DE2B8130E0FA80E090670051E0CA
:101120004424439433243394E516C1F086E0E81652
:1011300079F092E0E916E1F1A3E0EA1621F0B5E0DA
:10114000412CEB1237C0442443943324339433C0EE
:101150004424439433243394EE24E394C9016CE093
:1011600070E073D4182F282E552453942C30310559
:101170000CF4512C8091B0009091B1002FD5F1105A
:101180001CC087E090E08ED4FC01DC01272D1D926D
:101190002A95E9F7918280829093B1008093B00004
:1011A000211002C09CE0292E22821382048351C0A8
:1011B00044244394312CE12CD1CF4AE04F15B0F0B8
:1011C00087E090E06FD4FC01DC01272D1D922A9569
:1011D000E9F7B182A0829093B1008093B000211012
:1011E00002C08CE0282E2282F382E0CF4EE04F1521
:1011F000B8F087E090E056D4FC01DC01272D1D9269
:101200002A95E9F7D182C0829093B1008093B00013
:101210008FE08F191E0D09F41CE01283838317C021
:101220004FE0F41223C087E090E03CD4FC01DC01E5
:10123000272D1D922A95E9F7918280829093B10023
:101240008093B0001E0D09F41CE01283138282E02B
:10125000848355828091B0009091B100DC01ED91C2
:10126000FC910190F081E02D0995C8CE43E14F1526
:1012700090F087E090E016D4FC01DC01272D1D9250
:101280002A95E9F7B182A0829093B1008093B000D3
:1012900081EF8F0DBFCF4DE14F15B8F087E090E0A3
:1012A00001D4FC01DC01272D1D922A95E9F7D1829A
:1012B000C0829093B1008093B0008EE18F19130D1E
:1012C00009F41CE01283838317C04EE1F41216C0A8
:1012D00087E090E0E7D3FC01DC01272D1D922A95E1
:1012E000E9F7918280829093B1008093B000130D52
:1012F00009F41CE01283138283E0AACF48E24F1561
:1013000090F087E090E0CED3FC01DC01272D1D9208
:101310002A95E9F7B182A0829093B1008093B00042
:1013200082EE8F0DCCCF4CE24F15B8F087E090E005
:10133000B9D3FC01DC01272D1D922A95E9F7D18252
:10134000C0829093B1008093B0008DE28F19140D8C
:1013500009F41CE01283838317C04DE2F41216C017
:1013600087E090E09FD3FC01DC01272D1D922A9598
:10137000E9F7918280829093B1008093B000140DC0
:1013800009F41CE012831382648263CF41E387E097
:1013900090E04F1580F086D3FC01DC01272D1D92D3
:1013A0002A95E9F7B182A0829093B1008093B000B2
:1013B00083ED8F0DCCCF76D3FC01DC01272D1D9260
:1013C0002A95E9F7D182C0829093B1008093B00052
:1013D0001F5F12838CE38F198383E8CE03D820919B
:1013E000B2003091B3004091B4005091B50026177F
:1013F00037074807590728F48091B600882309F475
:101400001ECE8FD6892B79F48091B60081110BC046
:101410000093B600E7D76093A7007093A80080936D
:10142000A9009093AA007DD6892BA1F58091B600E2
:10143000882381F1D7D72091A7003091A80040914F
:10144000A9005091AA00621B730B840B950B613AA3
:101450007F4081059105F0F00093650000936400E2
:101460000093610041E050E05093630040936200BC
:10147000009360001092B2001092B3001092B4007A
:101480001092B500009368000093BB000093A60083
:101490001092AF0046D6892B09F447C08091B60060
:1014A000882309F442C09ED72091A7003091A8005C
:1014B0004091A9005091AA00621B730B840B950BFD
:1014C0006B3071058105910580F1009368001092E1
:1014D000B6001092B2001092B3001092B4001092B5
:1014E000B500E1D576D67ED7AB01BC018091A200D4
:1014F0009091A300A091A400B091A5008053984FB3
:10150000AF4FBF4F481759076A077B0708F060C005
:101510008091A1008F5F833008F04FC08093A100BD
:1015200068E270E080E090E034D75CD7AB01BC01AA
:101530008091AB009091AC00A091AD00B091AE0055
:10154000C296A11DB11D84179507A607B70708F01D
:1015500024CD5ED747D76093AB007093AC008093E7
:10156000AD009093AE0014CD3DD7032C000C440881
:101570005508A20191012A563F4F4F4F5F4FDC01A2
:10158000CB01820F931FA41FB51F8093B2009093CD
:10159000B300A093B400B093B50024D7260E371E35
:1015A000481E591E2092B7003092B8004092B900F0
:1015B0005092BA001092660024CF1092A10073D509
:1015C00008D66CE271E080E090E0E3D683DAA8CF41
:1015D0001092A10007D76093A2007093A30080939C
:1015E000A4009093A5009CCF1091AF00123009F495
:1015F00000C108F0C3C0112309F4D9C0113009F4A7
:10160000E7C08FD5892B79F48091B60081110BC08A
:101610000093B600E7D66093A7007093A80080936C
:10162000A9009093AA007DD5892B09F06DC0809107
:10163000B600882309F468C0D5D62091A700309160
:10164000A8004091A9005091AA00621B730B840B63
:10165000950B6D3D75408105910508F455C080914D
:10166000A60081114DC01F5F1093AF00E091620092
:10167000F0916300309729F4143019F4B5E0B09379
:10168000AF008091AF008630D9F520916500422FE0
:101690004150550BCA016FE070E0BAD17C018091D6
:1016A000610090E0BF01B4D1E80EF91E1091640012
:1016B00080916700813019F0863009F0DCC022305B
:1016C00008F0E0C0F7FCDEC0809160008111145F7B
:1016D000183109F410E06AE070E080E090E059D63B
:1016E0001B83EA8219820D830E830F83CE0101963C
:1016F00001DB6AE070E080E090E04BD61092BB0026
:101700000093A6001092B6000CD5892BA9F1809108
:10171000B600882389F166D62090A7003090A800F3
:101720004090A9005090AA00621973098409950994
:101730006B30710581059105F8F054D66219730973
:10174000840995096C3D754081059105A8F4809147
:10175000A60081110DC08091AF00823009F4C3C092
:1017600008F09EC0882309F4A8C0813009F4B0C0F5
:101770001092A6001092B6002CD5D7CE143009F4E2
:101780005FC008F445C0153009F03BCF8091600080
:101790001092D1001092D2001092D3001092D40077
:1017A0001092D5001092D6008093D7002ACF809156
:1017B00067001092D1001092D2001092D3001092C4
:1017C000D4008093D5001092D6000093D70019CF93
:1017D000809165001092D1001092D2001093D30036
:1017E0001092D4001092D5008093D6001092D700AA
:1017F00008CF809164001092D1001092D200009323
:10180000D3001092D4008093D5001092D600EECF72
:101810002091620030916300832F881F8827881FE2
:101820008093D10081E0121613060CF080E08093C3
:10183000D2001092D3000093D4001092D500E5CFCF
:1018400090916100209162003091630081E02F3F10
:10185000320709F080E08093D10081E0213031052A
:1018600009F080E08093D2001092D3000093D4005E
:101870009093D500CACF823011F0843051F42430D7
:1018800008F420CF1150F7FE1FCF5CE3E50EF11CEA
:101890001BCF833011F08530B1F7233098F712CF8A
:1018A000843009F43FC050F1853009F061CF809158
:1018B00060008027809360005BCF809167008F5F1E
:1018C000873018F48093670053CF0093670050CFA0
:1018D000809165008F5F853018F48093650048CF54
:1018E0000093650045CF809164008F5F8D3018F4C0
:1018F000809364003DCF009364003ACF80916200F2
:10190000909163000196823091052CF490936300CE
:10191000809362002DCF4FEF5FEF509363004093B1
:10192000620026CF809161008F5F8D3018F4809324
:1019300061001ECF009361001BCFDE9ADC9AD49A1F
:10194000D69A8FEF8FB98AE28DB980EF8EB908955C
:10195000EE27FF27AA27BB2708C0A20FB31FE41F4B
:10196000F51F220F331F441F551F969587957795B6
:10197000679598F37040A9F7009799F7BD01CF01DB
:101980000895052E97FB16F400940FD057FD05D04F
:1019900014D007FC02D046F408C05095409530950D
:1019A00021953F4F4F4F5F4F0895909580957095CB
:1019B00061957F4F8F4F9F4F0895A1E21A2EAA1B6A
:1019C000BB1BFD010DC0AA1FBB1FEE1FFF1FA217EF
:1019D000B307E407F50720F0A21BB30BE40BF50BEC
:1019E000661F771F881F991F1A9469F76095709575
:1019F000809590959B01AC01BD01CF010895002415
:101A000080FD060E660F11F08695D1F7802D0895A2
:101A10000024552704C0080E591F880F991F0097EE
:101A200029F076956795B8F37105B9F7802D952F54
:101A30000895991B79E004C0991F961708F0961B2A
:101A4000881F7A95C9F78095089597FB072E16F49D
:101A5000009406D077FD08D00BD007FC05D03EF4EB
:101A6000909581959F4F0895709561957F4F08954A
:101A7000AA1BBB1B51E107C0AA1FBB1FA617B707B4
:101A800010F0A61BB70B881F991F5A95A9F78095D0
:101A90009095BC01CD010895EE0FFF1F0590F491C4
:101AA000E02D09940F931F93CF93DF93823091051C
:101AB00010F482E090E0E091DA00F091DB0030E099
:101AC00020E0B0E0A0E0309799F42115310509F449
:101AD0004AC0281B390B24303105D8F58A819B81F7
:101AE0006115710589F1FB0193838283FE0111C0A9
:101AF000408151810281138148175907E0F048174E
:101B0000590799F4109761F012960C931297139657
:101B10001C933296CF01DF91CF911F910F910895C1
:101B20000093DA001093DB00F4CF2115310551F05A
:101B30004217530738F0A901DB019A01BD01DF010B
:101B4000F801C1CFEF01F9CF9093DB008093DA0069
:101B5000CDCFFE01E20FF31F819391932250310903
:101B600039832883D7CF2091D8003091D900232BF7
:101B700041F420916B0030916C003093D900209398
:101B8000D8002091690030916A002115310541F497
:101B90002DB73EB740916D0050916E00241B350B60
:101BA000E091D800F091D900E217F307A0F42E1BC2
:101BB0003F0B2817390778F0AC014E5F5F4F2417B1
:101BC000350748F04E0F5F1F5093D9004093D8005F
:101BD000819391939FCFF0E0E0E09CCFCF93DF9390
:101BE0000097E9F0FC01329713821282A091DA008B
:101BF000B091DB00ED0130E020E01097A1F42081EE
:101C00003181820F931F2091D8003091D90028177D
:101C1000390709F061C0F093D900E093D800DF9153
:101C2000CF910895EA01CE17DF07E8F54A815B817D
:101C30009E0141155105B1F7E901FB83EA83499102
:101C40005991C40FD51FEC17FD0761F48081918174
:101C50000296840F951FE90199838883828193817D
:101C60009B838A83F0E0E0E012968D919C9113971C
:101C70000097B9F52D913C911197CD010296820FF5
:101C8000931F2091D8003091D9002817390739F6D1
:101C9000309751F51092DB001092DA00B093D90022
:101CA000A093D800BCCFD383C28340815181840FDD
:101CB000951FC817D90761F44E5F5F4F88819981DE
:101CC000480F591F518340838A819B81938382836C
:101CD0002115310509F0B0CFF093DB00E093DA0075
:101CE0009ECFFD01DC01C0CF13821282D7CFF894C2
:021CF000FFCF24
:101CF2000101010001010101010000DC008000007E
:101D02000000000502990300000000780041020073
:101D12000000000502FF0300000000050289040024
:081D2200000000050216050097
:00000001FF
